:02000002B0004C
:1040000000400B00CC520B00000006000C00050223
:084010000401E50C00000000B2
:04401800C84F0B0082
:10401C0009480A49884208B505D0094A824202D0AB
:10402C00121A00F018FF0748074A0021121A00F074
:10403C0020FF014808BD00BF40E6032038520B00AA
:10404C00ACE60320ACE60320EDE7032070B5074E89
:10405C00074C00F02BFDA41BA4080025AC4200D19A
:10406C0070BD56F8043B98470135F7E7E4510B0057
:10407C0008520B0000F013B808B500F023F8BDE8A7
:10408C00084000F0CBBC00F0FDB900F003BA00789A
:10409C00B0FA80F04009704701230370704708B5EF
:1040AC0000F0F8FB4FF4165100F0E8FB00F058FE5E
:1040BC004FF4165100F04CFBBDE8084001210720DD
:1040CC0000F0B0BE38B500F0E5FB03681B699847FB
:1040DC00002835DD00F0DEFB03685B699847C0B251
:1040EC00312806D100F03CFE4F21BDE8384000F0ED
:1040FC0032BB302803D100F033FE4621F5E73F28D0
:10410C001ED100F02DFE472100F025FB642000F0AD
:10411C005FFC00F0BFFB00F03EFD00F0BBFB036852
:10412C0004469D6800F01CFE03685B699847C1B2A9
:10413C002046A84700F0AEFBBDE8384000F02BBD90
:10414C0038BD0000044B0022C3E90022A2F58032E6
:10415C009A60012000F072B9ACE6032008B5024B5E
:10416C001B681B68019308BD4C02030008B5024B89
:10417C001B685B68019308BD4C02030008B5024B39
:10418C001B681B69019308BD4C02030008B5024B68
:10419C001B685B69019308BD4C02030008B5024B18
:1041AC001B689B69019308BD4C02030008B5024BC8
:1041BC001B68DB69019308BD4C02030008B5024B78
:1041CC001B681B6A019308BD4C02030008B5024B27
:1041DC001B681B6A019308BD2802030008B5024B3B
:1041EC001B685B6A019308BD2802030008B5024BEB
:1041FC001B689B6A019308BD2802030008B5024B9B
:10420C001B68DB6A019308BD2802030008B5024B4A
:10421C001B681B6B019308BD2802030008B5024BF9
:10422C001B685B6B019308BD2802030008B5024BA9
:10423C001B681B6C019308BD2802030008B5024BD8
:10424C001B68DB69019308BD3002030008B5024B03
:10425C001B681B6A019308BD3002030008B5024BB2
:10426C001B68DB68019308BD3C02030008B5024BD8
:10427C001B681B69019308BD3C02030008B5024B87
:10428C001B685B69019308BD3C02030008B5024B37
:10429C001B689B69019308BD3C02030008B5024BE7
:1042AC001B68DB69019308BD3C02030008B5024B97
:1042BC001B681B6A019308BD3C02030008B5024B46
:1042CC001B689B6A019308BD3C02030008B5024BB6
:1042DC001B68DB6A019308BD3C02030008B5024B66
:1042EC001B681B6B019308BD3C02030008B5024B15
:1042FC001B681B6C019308BD3C02030008B5024B04
:10430C001B685B69019308BD6402030008B5024B8E
:10431C001B685B6C019308BD4802030008B5024B97
:10432C001B685B68019308BD1802030008B5024BBB
:10433C001B685B69019308BD1802030008B5024BAA
:10434C001B689B68019308BD2C02030008B5024B47
:10435C001B689B68019308BD6802030008B5024BFB
:10436C001B68DB68019308BD6802030008B5024BAB
:10437C001B68DB6B019308BD4402030008B5024BBC
:10438C001B685B68019308BD4002030008B5024B33
:10439C001B689B68019308BD4002030008B5024BE3
:1043AC001B68DB68019308BD4002030008B5024B93
:1043BC001B681B69019308BD4002030008B5024B42
:1043CC001B685B69019308BD4002030008B5024BF2
:1043DC001B689B69019308BD4002030008B5024BA2
:1043EC001B68DB69019308BD4002030008B5024B52
:1043FC001B681B6A019308BD4002030008B5024B01
:10440C001B681B6B019308BD4002030008B5024BEF
:10441C001B685B6B019308BD4002030008B5024B9F
:10442C001B681B6C019308BD4002030008B5024BCE
:10443C001B685B6C019308BD4002030008B5024B7E
:10444C001B685B68019308BD2002030008B5024B92
:10445C001B685B69019308BD2002030008B5034B80
:10446C001B68D3F88830019308BD000020020300BC
:10447C0008B5034B1B68D3F89430019308BD0000BA
:10448C002002030008B5024B1B681B68019308BD92
:10449C001C02030008B5024B1B685B68019308BD46
:1044AC001C02030008B5024B1B681B6C019308BD72
:1044BC001C02030008B5024B1B685B6C019308BD22
:1044CC001C020300002340681A46FFF757BF4068E0
:1044DC0000220221FFF762BF002240681146FFF75D
:1044EC0055BF002240681146FFF760BF00234068AB
:1044FC001A461946FFF762BF002340681A46194650
:10450C00FFF764BF40680021FFF788BF40680021B7
:10451C00FFF78CBF4068002281F00101FFF75EBFFE
:10452C0040680022FFF76ABF002240681146FFF77F
:10453C006DBF002240681146FFF758BF2DE9F043CC
:10454C0095B014460D46074600F004FA00211C22D3
:10455C000DA8009100F08DFC40230C9320466B4677
:10456C000CAA0021FFF7FAFE044600284BD10246A4
:10457C0001216868FFF71AFF02218046224668680D
:10458C00FFF714FF009E81462146002E3BD00029E8
:10459C0039D17368022B03D00A2B11D0F669F4E7DA
:1045AC00B8F1000FFAD0716906A8043107AD00F01C
:1045BC00FFF90FCD3C1D0FC42B6823704146EDE76E
:1045CC00B9F1000FEAD07469102201A800F051FC77
:1045DC0006238DF8143001AD04F108031834186863
:1045EC0059682A4603C20833A3421546F7D101A9DC
:1045FC0006A807AD00F0BCF90FCD3C1D0FC42B680D
:10460C0023704946CAE70098FFF7A0FE384615B05C
:10461C00BDE8F083024B034A1A6000225A607047CF
:10462C00B8E60320E44F0B00002240681146FFF768
:10463C00BDBE002240681146FFF7D8BE002240687C
:10464C001146FFF7E3BE40680022FFF7D7BE406873
:10465C00002281F00101FFF7C1BE002340681A4619
:10466C001946FFF7B3BE002340681A461946FFF7F8
:10467C00A5BE002240681146FFF788BE40680022A4
:10468C000221FFF78BBE002340681A46FFF776BE67
:10469C00024B04225A60024A1A607047C0E603209B
:1046AC0020500B0070474174704708B5007CFFF731
:1046BC0005FE20EAE07008BD08B5007CFFF7D6FDCA
:1046CC0020EAE07008BD08B5007CFFF7DFFD40EA8A
:1046DC00E07008BD08B5007CFFF7D0FD40EAE07043
:1046EC0008BD007CFFF7DABD37B5457C04462DB11B
:1046FC00207C03B0BDE83040FFF7B0BD007C0191D9
:10470C00FFF7DCFD00280199F2DC284603B030BD30
:10471C0010B514210446FFF7B8FC204610BD00006C
:10472C0010B54FF47A730446084611460022C4E9CA
:10473C000123044B2360012320746374FFF7D6FD1F
:10474C00204610BD5C500B00007C0023FFF7BEBD63
:10475C000022FFF7F9BF007CFFF7C0BD7047F8B52A
:10476C00064615460C468F18BC4206D0336814F822
:10477C00011B9B6830469847F6E72846F8BD007C3D
:10478C000022FFF723BD007C0021FFF727BD007C32
:10479C000021FFF72BBD007C0021FFF72FBD007C13
:1047AC000021FFF733BD10B514210446FFF76DFC53
:1047BC00204610BD10B54FF47A730446084600210C
:1047CC00C4E90113034B236020741146FFF72EFD3F
:1047DC00204610BD8C500B004174704770477047D9
:1047EC0008B50021007CFFF7D9FC40EAE07008BD59
:1047FC0008B50121007CFFF7D1FC40EAE07008BD50
:10480C0008B5007CFFF7C2FC20EAE07008BD08B5D3
:10481C00007CFFF7B3FC20EAE07008BD13B504463A
:10482C00007C0191FFF7B2FC0028019901DC607C4F
:10483C0020B1207CFFF7BAFC20EAE07002B010BD7A
:10484C00007CFFF7BBBC10B514210446FFF71DFC20
:10485C00204610BD10B54FF47A730446084600216B
:10486C00C4E90113044B23600123207463741146C3
:10487C00FFF774FC204610BDB4500B00007C0022E6
:10488C00FFF774BC10B514220446002100F0F1FAB5
:10489C00204610BD10B50F4C88B003A8FFF7F2FFEF
:1048AC002178BFF35B8F11F001010FD120460191EC
:1048BC00FFF7EDFB019948B103AA0748FFF7CAFFC0
:1048CC002046FFF7E9FB054800F0BFFA024808B0A4
:1048DC0010BD00BFC8E60320CCE60320E9470B005F
:1048EC00704710B518210446FFF7CFFB204610BDCA
:1048FC00F0B5037D062B8DB00E4600F104074FF08A
:10490C00000412D000F1080515F8011D0A223046EA
:10491C0000F04DF9AF42044419D0002CF4D02E21F4
:10492C00304600F035F90444EEE72F236A46394649
:10493C000A208DF80040FFF7E1FC684600F0D0FA41
:10494C0033680246DB686946304698470446204681
:10495C000DB0F0BD10B5054B0446112240F8043BD8
:10496C00002100F086FA204610BD00BFE4500B0079
:10497C000346074A10B543F8042B01F1100251F815
:10498C00044B43F8044B9142F9D10A781A7010BDCC
:10499C00E4500B0010B59DF8084044EA032343EAA9
:1049AC00024242EA016104234160037510BD00001C
:1049BC0007B5064B0360CB7800938B784A7809785F
:1049CC00FFF7E8FF03B05DF804FB00BFE4500B00F9
:1049DC000021FFF73BBD0000014B1860704700BF82
:1049EC0044E6032008B50B4B43B1FFF753FF0368B4
:1049FC001B699847002801DDAFF30080064B43B1DB
:104A0C0000F0AEF903681B699847002801DDAFF38D
:104A1C00008008BD000000000000000008B5FFF792
:104A2C00E1FFFFF783FC014B186008BD34E703205E
:104A3C000548064A064908B5121A00F00CFA054B4F
:104A4C00054A1A6008BD00BF00F4032004F40320DB
:104A5C0034520B0000F403201E1C279A07B50023C8
:104A6C0000931A466FF07701FFF702FD03B05DF873
:104A7C0004FB000007B543880A2B08D0502B0BD140
:104A8C00094B1B684BB103B05DF804EB1847FFF7FB
:104A9C00E5FF03B05DF804FB002300931A466FF0AA
:104AAC007701FFF7E5FCF4E7E4E6032010B51248C4
:104ABC000021FFF7FFFC114B1A68114B9A42114B66
:104ACC000CBF012200221A7001D0FFF7B1FFFFF7D3
:104ADC0025FC044600F0D6F90B4B13B12046AFF37E
:104AEC00008000210848FFF741FCBDE81040074852
:104AFC000021FFF7B3BC00BFE5490B0000F4032015
:104B0C001E1C279AE0E6032000000000814A0B00DF
:104B1C00014B00229A607047E8E60320024B1A68AA
:104B2C00024B1A60704700BF40E60320F8E60320F2
:104B3C00014B024A1A607047FCE603200C510B0033
:104B4C00F8B506460D468F180024BD420CD03368CC
:104B5C0015F8011B9B6830469847031E01DB1C446B
:104B6C00F3E7002C08BF1C462046F8BD13B50446DD
:104B7C00084659B1019100F0B3F923680199DB683B
:104B8C000246204602B0BDE81040184702B010BDE6
:104B9C0003689B68184738B50D210546FFF7F8FFE9
:104BAC000A2104462846FFF7F3FF204438BD30B5F0
:104BBC008BB00023012A8DF8243098BF0A2209AC4F
:104BCC000D46B1FBF2F101FB125303F0FF03092B6D
:104BDC0094BF30333733DBB2AA4204F8013DEFD92E
:104BEC002146FFF7C3FF0BB030BD00000248002385
:104BFC000360FFF78BBB00BF00E70320054B0222CD
:104C0C001A60054B054A9A600020C3E90000FFF7C3
:104C1C0015BC00BF10E7032004E703200000FFFFD2
:104C2C0010B5044608462170FFF708FB00236360AB
:104C3C00204610BD002240681146FFF7D7BB00226A
:104C4C0040681146FFF7E2BB40680022FFF7D6BB75
:104C5C004068002281F00101FFF7C0BB00234068CF
:104C6C001A461946FFF7B2BB002340681A4619468C
:104C7C00FFF7A4BB002240681146FFF797BB002248
:104C8C0040681146FFF782BB406800220221FFF703
:104C9C0085BB002340681A46FFF770BB024B03220A
:104CAC005A60024A1A60704714E7032018510B002F
:104CBC007047000038B52025142304460360856036
:104CCC0005610649284600F0BEF804496060284694
:104CDC0000F0B9F8E060204638BD00BF4C510B0025
:104CEC0030B50E4D2978BFF35B8F11F0010487B0FE
:104CFC0011D12846FFF7CBF968B101A8FFF7DAFF0D
:104D0C0001AA21460648FFF755FD2846FFF7C4F9CE
:104D1C00044800F09AF8024807B030BD1CE70320A5
:104D2C0020E70320BD4C0B007047000038B504464B
:104D3C0014252A46002100F09CF8258040250749BF
:104D4C0025812846258200F07EF8044960602846BB
:104D5C0000F079F8E060204638BD00BF4C510B00E4
:104D6C0030B50E4D2978BFF35B8F11F0010487B07D
:104D7C0011D12846FFF78BF968B101A8FFF7D6FFD0
:104D8C0001AA21460648FFF7CBFC2846FFF784F919
:104D9C00044800F05AF8024807B030BD38E7032049
:104DAC003CE70320354D0B00232813B502D9002016
:104DBC0002B010BDA0F10B03022B1AD8174C2178AE
:104DCC00BFF35B8F11F001010BD120460191FFF76E
:104DDC005EF9019928B11248FFF722FF2046FFF730
:104DEC005BF90F4B1878FFF731FA0028DFD101205F
:104DFC00DEE7012809D8FFF773FF0021007CFFF7DD
:104E0C000DFA80F00100C0B2D2E709380128EED8C3
:104E1C00FFF7A6FF007CFFF749FAF2E750E7032003
:104E2C0054E70320232838B504460D460AD8FF2939
:104E3C0008D0FFF7B9FF28B129462046BDE8384015
:104E4C00FFF77CBA38BDFFF71EB9002301461A469E
:104E5C00184600F04DB80A44914200F1FF3300D1DE
:104E6C00704710B511F8014B03F8014F9142F9D17D
:104E7C0010BD02440346934200D1704703F8011B56
:104E8C00F9E7000038B5104B1D68AB6B0446B3B99D
:104E9C001820FFF7F7FA0246A86320B90B4B0C4811
:104EAC004221FFF7FFFA0B490B4BC0E900130B4BE8
:104EBC0083600B23838100210120C2E90401AB6BC9
:104ECC0000221C615A6138BD44E603204D510B0091
:104EDC0064510B000E33CDAB34126DE6ECDE0500E5
:104EEC00034613F8012B002AFBD1181A013870471E
:104EFC002DE9F843DFF8B8800646D8F800001F46C5
:104F0C000D46914600F056F8254B1C6834B9254CDB
:104F1C001C60254B13B11B68C4F8883063681F2BC9
:104F2C0007DDD8F8000000F047F84FF0FF30BDE87F
:104F3C00F8834EB3D4F8880088B91C4B23B9D8F841
:104F4C00000000F038F8F0E74FF48470FFF79AFA9D
:104F5C000028F4D00023C0E94033C4F8880063680B
:104F6C0040F8239001229A4000EB8301D0F80031E5
:104F7C001343C0F80031022EC1F8807002BFD0F884
:104F8C0004311343C0F804316368D8F800005A1C8C
:104F9C000233626044F8235000F00EF80020C6E79C
:104FAC00E8E703205CE703200000000091440B00BD
:104FBC00A8E6032070477047704700001D400B00A7
:104FCC0059400B0081400B0085400B000000000095
:104FDC000000000000000000D1440B00DB440B007B
:104FEC00E5440B00EF440B00F9440B0005450B00A6
:104FFC0011450B0019450B0021450B002D450B00ED
:10500C0035450B003F450B0049450B0000000000E7
:10501C000000000093460B0089460B007F460B00F6
:10502C0035460B0073460B0067460B0011450B0011
:10503C0019450B005B460B0053460B0049460B0011
:10504C003F460B0049450B0000000000000000002B
:10505C00B1460B001D470B00F5460B004D4B0B00EA
:10506C00C5460B00E1460B00D3460B00EF460B0088
:10507C00B3460B00B7460B00000000000000000018
:10508C0069470B00B3470B008B470B006B470B00BA
:10509C0093470B009B470B00A3470B00AB470B0040
:1050AC000000000000000000EB470B0053480B0011
:1050BC0029480B004D4B0B001B480B00ED470B0018
:1050CC00FD470B004D480B000D480B00E5470B004E
:1050DC000000000000000000FD480B00ED480B0034
:1050EC00EF480B0025592D256D2D25645425483A84
:1050FC00254D3A2553257A0061736374696D6500FB
:10510C006170700000000000000000009F4C0B005C
:10511C00954C0B008B4C0B00814C0B00754C0B0011
:10512C00694C0B0011450B0019450B005D4C0B0035
:10513C00554C0B004B4C0B00414C0B0049450B00E4
:10514C00005245454E54206D616C6C6F6320737535
:10515C0063636565646564002F6D6E742F776F7281
:10516C006B73706163652F776F726B7370616365BE
:10517C002F4743432D31302D706970656C696E6516
:10518C002F6A656E6B696E732D4743432D31302D3D
:10519C00706970656C696E652D34385F32303230F1
:1051AC00313132345F313630363138303634312F9C
:1051BC007372632F6E65776C69622F6E65776C699D
:1051CC00622F6C6962632F7374646C69622F7261F5
:1051DC006E642E630000000051410B0021460B0051
:1051EC009D460B001D4B0B00294B0B003D4B0B0040
:1051FC00F94B0B00094C0B00A94C0B0000000000F4
:04520C00000000009E
:10521000040000001400000003000000474E550089
:1052200011468593E1920CA461CA465A67A96D5D47
:04523000D44A64F602
:045234000000000076
:1052380004510B0048E603200000000000000000B5
:105248000000000000000000000000000000000056
:105258000000000000000000000000000000000046
:105268000000000000000000000000000000000036
:105278000000000000000000000000000000000026
:105288000000000000000000000000000000000016
:0C5298000000000000000000ECE7032014
:1052A400FFFFFFFF00000102030405060708090AC7
:1052B4000B0C0D0E0F101112131415161718191AC2
:0852C4001B1C1D1E1F20280009
:0452CC0078563412CA
:04000003B000401CED
:00000001FF
